{
  "abi": [
    {
      "inputs": [
        {
          "internalType": "address",
          "name": "_token",
          "type": "address"
        },
        {
          "internalType": "address[]",
          "name": "_members",
          "type": "address[]"
        },
        {
          "internalType": "string",
          "name": "_name",
          "type": "string"
        }
      ],
      "stateMutability": "nonpayable",
      "type": "constructor"
    },
    {
      "anonymous": false,
      "inputs": [
        {
          "indexed": true,
          "internalType": "address",
          "name": "account",
          "type": "address"
        }
      ],
      "name": "AddedMember",
      "type": "event"
    },
    {
      "anonymous": false,
      "inputs": [
        {
          "indexed": true,
          "internalType": "address",
          "name": "account",
          "type": "address"
        }
      ],
      "name": "AddedOwner",
      "type": "event"
    },
    {
      "anonymous": false,
      "inputs": [
        {
          "indexed": true,
          "internalType": "address",
          "name": "payer",
          "type": "address"
        },
        {
          "indexed": false,
          "internalType": "uint256",
          "name": "amount",
          "type": "uint256"
        },
        {
          "indexed": false,
          "internalType": "address[]",
          "name": "participants",
          "type": "address[]"
        },
        {
          "indexed": false,
          "internalType": "string",
          "name": "description",
          "type": "string"
        }
      ],
      "name": "NewExpense",
      "type": "event"
    },
    {
      "inputs": [
        {
          "internalType": "uint256",
          "name": "amount",
          "type": "uint256"
        },
        {
          "internalType": "address",
          "name": "payer",
          "type": "address"
        },
        {
          "internalType": "address[]",
          "name": "_participants",
          "type": "address[]"
        },
        {
          "internalType": "string",
          "name": "description",
          "type": "string"
        }
      ],
      "name": "addExpense",
      "outputs": [],
      "stateMutability": "nonpayable",
      "type": "function"
    },
    {
      "inputs": [
        {
          "internalType": "address",
          "name": "_member",
          "type": "address"
        }
      ],
      "name": "addMember",
      "outputs": [],
      "stateMutability": "nonpayable",
      "type": "function"
    },
    {
      "inputs": [
        {
          "internalType": "address",
          "name": "_owner",
          "type": "address"
        }
      ],
      "name": "addOwner",
      "outputs": [],
      "stateMutability": "nonpayable",
      "type": "function"
    },
    {
      "inputs": [
        {
          "internalType": "address",
          "name": "",
          "type": "address"
        }
      ],
      "name": "balances",
      "outputs": [
        {
          "internalType": "int256",
          "name": "",
          "type": "int256"
        }
      ],
      "stateMutability": "view",
      "type": "function"
    },
    {
      "inputs": [],
      "name": "getMembers",
      "outputs": [
        {
          "internalType": "address[]",
          "name": "",
          "type": "address[]"
        }
      ],
      "stateMutability": "view",
      "type": "function"
    },
    {
      "inputs": [],
      "name": "getOwners",
      "outputs": [
        {
          "internalType": "address[]",
          "name": "",
          "type": "address[]"
        }
      ],
      "stateMutability": "view",
      "type": "function"
    },
    {
      "inputs": [
        {
          "internalType": "address",
          "name": "_member",
          "type": "address"
        }
      ],
      "name": "isMember",
      "outputs": [
        {
          "internalType": "bool",
          "name": "",
          "type": "bool"
        }
      ],
      "stateMutability": "view",
      "type": "function"
    },
    {
      "inputs": [
        {
          "internalType": "address",
          "name": "_owner",
          "type": "address"
        }
      ],
      "name": "isOwner",
      "outputs": [
        {
          "internalType": "bool",
          "name": "",
          "type": "bool"
        }
      ],
      "stateMutability": "view",
      "type": "function"
    },
    {
      "inputs": [],
      "name": "name",
      "outputs": [
        {
          "internalType": "string",
          "name": "",
          "type": "string"
        }
      ],
      "stateMutability": "view",
      "type": "function"
    },
    {
      "inputs": [
        {
          "internalType": "address",
          "name": "_member",
          "type": "address"
        }
      ],
      "name": "removeMember",
      "outputs": [],
      "stateMutability": "nonpayable",
      "type": "function"
    },
    {
      "inputs": [
        {
          "internalType": "address",
          "name": "_owner",
          "type": "address"
        }
      ],
      "name": "removeOwner",
      "outputs": [],
      "stateMutability": "nonpayable",
      "type": "function"
    },
    {
      "inputs": [],
      "name": "token",
      "outputs": [
        {
          "internalType": "address",
          "name": "",
          "type": "address"
        }
      ],
      "stateMutability": "view",
      "type": "function"
    },
    {
      "inputs": [],
      "name": "totalExpense",
      "outputs": [
        {
          "internalType": "uint256",
          "name": "",
          "type": "uint256"
        }
      ],
      "stateMutability": "view",
      "type": "function"
    }
  ],
  "bytecode": {
    "object": "0x60a060405260006004553480156200001657600080fd5b506040516200194038038062001940833981016040819052620000399162000467565b6001600160a01b03831660805280516200005b906000906020840190620002c6565b50600160005b83518110156200021a5760008482815181106200008257620000826200055c565b6020026020010151905060006001600160a01b0316816001600160a01b031614158015620000ba57506001600160a01b038116600114155b8015620000d057506001600160a01b0381163014155b8015620000ef5750826001600160a01b0316816001600160a01b031614155b620001325760405162461bcd60e51b815260206004820152600e60248201526d24b73b30b634b21036b2b6b132b960911b60448201526064015b60405180910390fd5b6001600160a01b0381811660009081526001602052604090205416156200019c5760405162461bcd60e51b815260206004820152601460248201527f4e6f206475706c6963617465206d656d62657273000000000000000000000000604482015260640162000129565b6001600160a01b03928316600090815260016020908152604080832080546001600160a01b03191696851696871790558583526003909152808220829055519193849290917f5a4cfa65604cc00ffd8d5d8d49961ee33c8b272b97123bd37c610774ac6f086091a25080620002118162000572565b91505062000061565b506001600160a01b038116600090815260016020818152604080842080546001600160a01b03199081168517909155875160065560029092527fe90b7bceb6e7df5418fb78d8ee546e97c83a08bbccc01a0644d599ccd2a7c2e0805483163390811790915580855281852080549093168417909255600592909255905190917f9465fa0c962cc76958e6373a993326400c1c94f8be2fe3a952adfa7f60b2ea2691a250505050620005d6565b828054620002d4906200059a565b90600052602060002090601f016020900481019282620002f8576000855562000343565b82601f106200031357805160ff191683800117855562000343565b8280016001018555821562000343579182015b828111156200034357825182559160200191906001019062000326565b506200035192915062000355565b5090565b5b8082111562000351576000815560010162000356565b80516001600160a01b03811681146200038457600080fd5b919050565b634e487b7160e01b600052604160045260246000fd5b604051601f8201601f191681016001600160401b0381118282101715620003ca57620003ca62000389565b604052919050565b600082601f830112620003e457600080fd5b81516001600160401b0381111562000400576200040062000389565b602062000416601f8301601f191682016200039f565b82815285828487010111156200042b57600080fd5b60005b838110156200044b5785810183015182820184015282016200042e565b838111156200045d5760008385840101525b5095945050505050565b6000806000606084860312156200047d57600080fd5b62000488846200036c565b602085810151919450906001600160401b0380821115620004a857600080fd5b818701915087601f830112620004bd57600080fd5b815181811115620004d257620004d262000389565b8060051b620004e38582016200039f565b918252838101850191858101908b841115620004fe57600080fd5b948601945b83861015620005275762000517866200036c565b8252948601949086019062000503565b60408b01519098509550505050808311156200054257600080fd5b50506200055286828701620003d2565b9150509250925092565b634e487b7160e01b600052603260045260246000fd5b6000600182016200059357634e487b7160e01b600052601160045260246000fd5b5060010190565b600181811c90821680620005af57607f821691505b602082108103620005d057634e487b7160e01b600052602260045260246000fd5b50919050565b60805161134e620005f260003960006101e2015261134e6000f3fe608060405234801561001057600080fd5b50600436106100cf5760003560e01c80639eab52531161008c578063ca6d56dc11610066578063ca6d56dc146101ae578063e933fac6146101c1578063ed0c46c3146101d4578063fc0c546a146101dd57600080fd5b80639eab52531461017e578063a0e67e2b14610193578063a230c5241461019b57600080fd5b806306fdde03146100d45780630b1ca49a146100f2578063173825d91461010757806327e235e31461011a5780632f54bf6e146101485780637065cb481461016b575b600080fd5b6100dc61021c565b6040516100e99190610f19565b60405180910390f35b610105610100366004610f4f565b6102aa565b005b610105610115366004610f4f565b6104a9565b61013a610128366004610f4f565b60036020526000908152604090205481565b6040519081526020016100e9565b61015b610156366004610f4f565b6106a0565b60405190151581526020016100e9565b610105610179366004610f4f565b6106db565b61018661083c565b6040516100e99190610fae565b61018661091a565b61015b6101a9366004610f4f565b6109ed565b6101056101bc366004610f4f565b610a25565b6101056101cf366004611078565b610b91565b61013a60045481565b6102047f000000000000000000000000000000000000000000000000000000000000000081565b6040516001600160a01b0390911681526020016100e9565b6000805461022990611163565b80601f016020809104026020016040519081016040528092919081815260200182805461025590611163565b80156102a25780601f10610277576101008083540402835291602001916102a2565b820191906000526020600020905b81548152906001019060200180831161028557829003601f168201915b505050505081565b336000908152600260205260409020546001600160a01b03166102e85760405162461bcd60e51b81526004016102df9061119d565b60405180910390fd5b6001600160a01b038181166000908152600160205260409020541661034f5760405162461bcd60e51b815260206004820152601860248201527f41646472657373206d7573742062652061206d656d626572000000000000000060448201526064016102df565b6001600160a01b038116600090815260036020526040902054156103b55760405162461bcd60e51b815260206004820152601e60248201527f43616e6e6f742072656d6f766520756e736574746c6564206d656d626572000060448201526064016102df565b6001600160a01b0380821660009081526001602052604090205416805b6001600160a01b03818116600090815260016020526040902054811690841614610468576001600160a01b03908116600090815260016020526040902054811690821681036104635760405162461bcd60e51b815260206004820152601b60248201527f4572726f72207768696c652072656d6f76696e67206d656d626572000000000060448201526064016102df565b6103d2565b6001600160a01b0390811660009081526001602052604080822080549484166001600160a01b03199586161790559390911681529190912080549091169055565b336000908152600260205260409020546001600160a01b03166104de5760405162461bcd60e51b81526004016102df9061119d565b6001600160a01b03818116600090815260026020526040902054166105455760405162461bcd60e51b815260206004820152601760248201527f41646472657373206d7573742062652061206f776e657200000000000000000060448201526064016102df565b6001600554116105975760405162461bcd60e51b815260206004820152601c60248201527f43616e6e6f742072656d6f766520746865206c617374206f776e65720000000060448201526064016102df565b6001600160a01b0380821660009081526002602052604090205416805b6001600160a01b0381811660009081526002602052604090205481169084161461064a576001600160a01b03908116600090815260026020526040902054811690821681036106455760405162461bcd60e51b815260206004820152601a60248201527f4572726f72207768696c652072656d6f76696e67206f776e657200000000000060448201526064016102df565b6105b4565b6001600160a01b0380821660009081526002602052604080822080548487166001600160a01b0319918216179091559286168252812080549092169091556005805491610696836111ea565b9190505550505050565b60006001600160a01b0382166001148015906106d557506001600160a01b038281166000908152600260205260409020541615155b92915050565b336000908152600260205260409020546001600160a01b03166107105760405162461bcd60e51b81526004016102df9061119d565b6001600160a01b038181166000908152600260205260409020541615801561074257506001600160a01b038116600114155b801561075757506001600160a01b0381163014155b6107935760405162461bcd60e51b815260206004820152600d60248201526c24b73b30b634b21037bbb732b960991b60448201526064016102df565b60026020527fe90b7bceb6e7df5418fb78d8ee546e97c83a08bbccc01a0644d599ccd2a7c2e080546001600160a01b038381166000818152604081208054939094166001600160a01b03199384161790935560018352835490911617909155600580549161080083611201565b90915550506040516001600160a01b038216907f9465fa0c962cc76958e6373a993326400c1c94f8be2fe3a952adfa7f60b2ea2690600090a250565b6060600060065467ffffffffffffffff81111561085b5761085b610fc1565b604051908082528060200260200182016040528015610884578160200160208202803683370190505b509050600160005b6001600160a01b0382811660009081526001602081905260409091205490911614610912576001600160a01b03918216600090815260016020526040902054909116908183826108db81611201565b9350815181106108ed576108ed61121a565b60200260200101906001600160a01b031690816001600160a01b03168152505061088c565b509092915050565b6060600060055467ffffffffffffffff81111561093957610939610fc1565b604051908082528060200260200182016040528015610962578160200160208202803683370190505b509050600160005b6001600160a01b0382811660009081526002602052604090205416600114610912576001600160a01b03918216600090815260026020526040902054909116908183826109b681611201565b9350815181106109c8576109c861121a565b60200260200101906001600160a01b031690816001600160a01b03168152505061096a565b60006001600160a01b0382166001148015906106d55750506001600160a01b0390811660009081526001602052604090205416151590565b336000908152600260205260409020546001600160a01b0316610a5a5760405162461bcd60e51b81526004016102df9061119d565b6001600160a01b0381811660009081526001602052604090205416158015610a8c57506001600160a01b038116600114155b8015610aa157506001600160a01b0381163014155b610ade5760405162461bcd60e51b815260206004820152600e60248201526d24b73b30b634b21036b2b6b132b960911b60448201526064016102df565b600160209081527fcc69885fda6bcc1a4ace058b4a62bf5e179ea78fd58a1ccd71c22cc9b688792f80546001600160a01b03848116600081815260408082208054949095166001600160a01b03199485161790945584549092161790925560039092529081208190556006805491610b5583611201565b90915550506040516001600160a01b038216907f5a4cfa65604cc00ffd8d5d8d49961ee33c8b272b97123bd37c610774ac6f086090600090a250565b336000908152600160205260409020546001600160a01b0316610bf65760405162461bcd60e51b815260206004820152601d60248201527f43616e206f6e6c792062652063616c6c6564206279206d656d6265727300000060448201526064016102df565b81516000610c048287611246565b90506000610c12838861125a565b9050610c1d866109ed565b610c625760405162461bcd60e51b81526020600482015260166024820152752830bcb2b91036bab9ba10313290309036b2b6b132b960511b60448201526064016102df565b610c6c8787610e23565b6000805b8651811015610dc0576000878281518110610c8d57610c8d61121a565b60200260200101519050610ca0816109ed565b610cec5760405162461bcd60e51b815260206004820152601c60248201527f5061727469636970616e74206d7573742062652061206d656d6265720000000060448201526064016102df565b806001600160a01b0316836001600160a01b031610610d695760405162461bcd60e51b815260206004820152603360248201527f5061727469636970616e7473206e65656420746f20626520756e6971756520696044820152726e20696e6372656173696e67206f726465722160681b60648201526084016102df565b9150818415610da157610d8f610d8085600161126e565b610d8990611286565b82610e23565b84610d99816111ea565b955050610dad565b610dad610d8985611286565b5080610db881611201565b915050610c70565b5087600454610dcf919061126e565b6004556040516001600160a01b038816907f97babe5a0a15482f4465619ae7d8e750ce22cd5f019d6b7e78f900b48d115c4690610e11908b908a908a906112a2565b60405180910390a25050505050505050565b336000908152600160205260409020546001600160a01b0316610e885760405162461bcd60e51b815260206004820152601d60248201527f43616e206f6e6c792062652063616c6c6564206279206d656d6265727300000060448201526064016102df565b6001600160a01b038116600090815260036020526040902054610eab83826112d7565b6001600160a01b039092166000908152600360205260409020919091555050565b6000815180845260005b81811015610ef257602081850181015186830182015201610ed6565b81811115610f04576000602083870101525b50601f01601f19169290920160200192915050565b602081526000610f2c6020830184610ecc565b9392505050565b80356001600160a01b0381168114610f4a57600080fd5b919050565b600060208284031215610f6157600080fd5b610f2c82610f33565b600081518084526020808501945080840160005b83811015610fa35781516001600160a01b031687529582019590820190600101610f7e565b509495945050505050565b602081526000610f2c6020830184610f6a565b634e487b7160e01b600052604160045260246000fd5b604051601f8201601f1916810167ffffffffffffffff8111828210171561100057611000610fc1565b604052919050565b600082601f83011261101957600080fd5b813567ffffffffffffffff81111561103357611033610fc1565b611046601f8201601f1916602001610fd7565b81815284602083860101111561105b57600080fd5b816020850160208301376000918101602001919091529392505050565b6000806000806080858703121561108e57600080fd5b84359350602061109f818701610f33565b9350604086013567ffffffffffffffff808211156110bc57600080fd5b818801915088601f8301126110d057600080fd5b8135818111156110e2576110e2610fc1565b8060051b6110f1858201610fd7565b918252838101850191858101908c84111561110b57600080fd5b948601945b838610156111305761112186610f33565b82529486019490860190611110565b9750505050606088013592508083111561114957600080fd5b505061115787828801611008565b91505092959194509250565b600181811c9082168061117757607f821691505b60208210810361119757634e487b7160e01b600052602260045260246000fd5b50919050565b6020808252601b908201527f43616e206f6e6c792062652063616c6c6564206279206f776e65720000000000604082015260600190565b634e487b7160e01b600052601160045260246000fd5b6000816111f9576111f96111d4565b506000190190565b600060018201611213576112136111d4565b5060010190565b634e487b7160e01b600052603260045260246000fd5b634e487b7160e01b600052601260045260246000fd5b60008261125557611255611230565b500690565b60008261126957611269611230565b500490565b60008219821115611281576112816111d4565b500190565b6000600160ff1b820161129b5761129b6111d4565b5060000390565b8381526060602082015260006112bb6060830185610f6a565b82810360408401526112cd8185610ecc565b9695505050505050565b600080821280156001600160ff1b03849003851316156112f9576112f96111d4565b600160ff1b8390038412811615611312576113126111d4565b5050019056fea2646970667358221220fbb3354a35a9fa9e50f1193a8fc9cb38efb748abede39fca852c4e031069999164736f6c634300080d0033",
    "linkReferences": {}
  },
  "methodIdentifiers": {
    "addExpense(uint256,address,address[],string)": "e933fac6",
    "addMember(address)": "ca6d56dc",
    "addOwner(address)": "7065cb48",
    "balances(address)": "27e235e3",
    "getMembers()": "9eab5253",
    "getOwners()": "a0e67e2b",
    "isMember(address)": "a230c524",
    "isOwner(address)": "2f54bf6e",
    "name()": "06fdde03",
    "removeMember(address)": "0b1ca49a",
    "removeOwner(address)": "173825d9",
    "token()": "fc0c546a",
    "totalExpense()": "ed0c46c3"
  },
  "id": 6
}